{"abi":[{"type":"constructor","inputs":[{"name":"_aiAgentAddress","type":"address","internalType":"address"}],"stateMutability":"nonpayable"},{"type":"function","name":"AI_AGENT_ADDRESS","inputs":[],"outputs":[{"name":"","type":"address","internalType":"address"}],"stateMutability":"view"},{"type":"function","name":"AI_SERVICE_FEE","inputs":[],"outputs":[{"name":"","type":"uint256","internalType":"uint256"}],"stateMutability":"view"},{"type":"function","name":"DEFAULT_EASY_DURATION","inputs":[],"outputs":[{"name":"","type":"uint256","internalType":"uint256"}],"stateMutability":"view"},{"type":"function","name":"DEFAULT_HARD_DURATION","inputs":[],"outputs":[{"name":"","type":"uint256","internalType":"uint256"}],"stateMutability":"view"},{"type":"function","name":"DEFAULT_MEDIUM_DURATION","inputs":[],"outputs":[{"name":"","type":"uint256","internalType":"uint256"}],"stateMutability":"view"},{"type":"function","name":"MAX_CONTRIBUTOR_STAKE_PERCENTAGE","inputs":[],"outputs":[{"name":"","type":"uint256","internalType":"uint256"}],"stateMutability":"view"},{"type":"function","name":"MIN_CONTRIBUTOR_STAKE_PERCENTAGE","inputs":[],"outputs":[{"name":"","type":"uint256","internalType":"uint256"}],"stateMutability":"view"},{"type":"function","name":"addressToNullifier","inputs":[{"name":"","type":"address","internalType":"address"}],"outputs":[{"name":"","type":"uint256","internalType":"uint256"}],"stateMutability":"view"},{"type":"function","name":"claimExpiredIssue","inputs":[{"name":"_issueId","type":"uint256","internalType":"uint256"}],"outputs":[],"stateMutability":"nonpayable"},{"type":"function","name":"completeIssue","inputs":[{"name":"_issueId","type":"uint256","internalType":"uint256"}],"outputs":[],"stateMutability":"nonpayable"},{"type":"function","name":"contributorAssignedIssues","inputs":[{"name":"","type":"address","internalType":"address"},{"name":"","type":"uint256","internalType":"uint256"}],"outputs":[{"name":"","type":"uint256","internalType":"uint256"}],"stateMutability":"view"},{"type":"function","name":"contributorStakes","inputs":[{"name":"","type":"address","internalType":"address"}],"outputs":[{"name":"","type":"uint256","internalType":"uint256"}],"stateMutability":"view"},{"type":"function","name":"createIssue","inputs":[{"name":"_githubIssueUrl","type":"string","internalType":"string"},{"name":"_description","type":"string","internalType":"string"},{"name":"_difficulty","type":"uint8","internalType":"enum DecentralizedIssueTracker.Difficulty"},{"name":"_easyDuration","type":"uint256","internalType":"uint256"},{"name":"_mediumDuration","type":"uint256","internalType":"uint256"},{"name":"_hardDuration","type":"uint256","internalType":"uint256"},{"name":"_minimumBountyCompletionPercentageForStakeReturn","type":"uint256","internalType":"uint256"}],"outputs":[{"name":"","type":"uint256","internalType":"uint256"}],"stateMutability":"payable"},{"type":"function","name":"creatorIssues","inputs":[{"name":"","type":"address","internalType":"address"},{"name":"","type":"uint256","internalType":"uint256"}],"outputs":[{"name":"","type":"uint256","internalType":"uint256"}],"stateMutability":"view"},{"type":"function","name":"getContractBalance","inputs":[],"outputs":[{"name":"","type":"uint256","internalType":"uint256"}],"stateMutability":"view"},{"type":"function","name":"getContributorAssignedIssues","inputs":[{"name":"_contributor","type":"address","internalType":"address"}],"outputs":[{"name":"","type":"uint256[]","internalType":"uint256[]"}],"stateMutability":"view"},{"type":"function","name":"getCreatorIssues","inputs":[{"name":"_creator","type":"address","internalType":"address"}],"outputs":[{"name":"","type":"uint256[]","internalType":"uint256[]"}],"stateMutability":"view"},{"type":"function","name":"getIssueDurations","inputs":[{"name":"_issueId","type":"uint256","internalType":"uint256"}],"outputs":[{"name":"","type":"uint256","internalType":"uint256"},{"name":"","type":"uint256","internalType":"uint256"},{"name":"","type":"uint256","internalType":"uint256"}],"stateMutability":"view"},{"type":"function","name":"getIssueInfo","inputs":[{"name":"_issueId","type":"uint256","internalType":"uint256"}],"outputs":[{"name":"issue","type":"tuple","internalType":"struct DecentralizedIssueTracker.Issue","components":[{"name":"id","type":"uint256","internalType":"uint256"},{"name":"creator","type":"address","internalType":"address"},{"name":"githubIssueUrl","type":"string","internalType":"string"},{"name":"description","type":"string","internalType":"string"},{"name":"bounty","type":"uint256","internalType":"uint256"},{"name":"assignedTo","type":"address","internalType":"address"},{"name":"isCompleted","type":"bool","internalType":"bool"},{"name":"percentageCompleted","type":"uint256","internalType":"uint256"},{"name":"claimedPercentage","type":"uint256","internalType":"uint256"},{"name":"isUnderReview","type":"bool","internalType":"bool"},{"name":"createdAt","type":"uint256","internalType":"uint256"},{"name":"difficulty","type":"uint8","internalType":"enum DecentralizedIssueTracker.Difficulty"},{"name":"deadline","type":"uint256","internalType":"uint256"},{"name":"easyDuration","type":"uint256","internalType":"uint256"},{"name":"mediumDuration","type":"uint256","internalType":"uint256"},{"name":"hardDuration","type":"uint256","internalType":"uint256"},{"name":"presentHackerConfidenceScore","type":"uint256","internalType":"uint256"},{"name":"minimumBountyCompletionPercentageForStakeReturn","type":"uint256","internalType":"uint256"}]}],"stateMutability":"view"},{"type":"function","name":"getIssuePreviousContributors","inputs":[{"name":"_issueId","type":"uint256","internalType":"uint256"}],"outputs":[{"name":"","type":"address[]","internalType":"address[]"}],"stateMutability":"view"},{"type":"function","name":"getOrganisationIssues","inputs":[],"outputs":[{"name":"","type":"uint256[]","internalType":"uint256[]"}],"stateMutability":"view"},{"type":"function","name":"gradeIssueByAI","inputs":[{"name":"_issueId","type":"uint256","internalType":"uint256"},{"name":"_confidenceScore","type":"uint256","internalType":"uint256"}],"outputs":[],"stateMutability":"nonpayable"},{"type":"function","name":"hasAttemptedIssue","inputs":[{"name":"","type":"uint256","internalType":"uint256"},{"name":"","type":"address","internalType":"address"}],"outputs":[{"name":"","type":"bool","internalType":"bool"}],"stateMutability":"view"},{"type":"function","name":"hasContributorAttemptedIssue","inputs":[{"name":"_issueId","type":"uint256","internalType":"uint256"},{"name":"_contributor","type":"address","internalType":"address"}],"outputs":[{"name":"","type":"bool","internalType":"bool"}],"stateMutability":"view"},{"type":"function","name":"increaseBounty","inputs":[{"name":"_issueId","type":"uint256","internalType":"uint256"}],"outputs":[],"stateMutability":"payable"},{"type":"function","name":"increaseIssueDeadline","inputs":[{"name":"_issueId","type":"uint256","internalType":"uint256"},{"name":"_time","type":"uint256","internalType":"uint256"}],"outputs":[],"stateMutability":"nonpayable"},{"type":"function","name":"increaseIssueDifficulty","inputs":[{"name":"_issueId","type":"uint256","internalType":"uint256"},{"name":"_difficulty","type":"uint8","internalType":"enum DecentralizedIssueTracker.Difficulty"}],"outputs":[],"stateMutability":"nonpayable"},{"type":"function","name":"isAddressVerified","inputs":[{"name":"_user","type":"address","internalType":"address"}],"outputs":[{"name":"","type":"bool","internalType":"bool"}],"stateMutability":"view"},{"type":"function","name":"isIssueExpired","inputs":[{"name":"_issueId","type":"uint256","internalType":"uint256"}],"outputs":[{"name":"","type":"bool","internalType":"bool"}],"stateMutability":"view"},{"type":"function","name":"issuePreviousContributors","inputs":[{"name":"","type":"uint256","internalType":"uint256"},{"name":"","type":"uint256","internalType":"uint256"}],"outputs":[{"name":"","type":"address","internalType":"address"}],"stateMutability":"view"},{"type":"function","name":"issueToUserWithdrawAmountLeft","inputs":[{"name":"","type":"uint256","internalType":"uint256"},{"name":"","type":"address","internalType":"address"}],"outputs":[{"name":"","type":"uint256","internalType":"uint256"}],"stateMutability":"view"},{"type":"function","name":"issues","inputs":[{"name":"","type":"uint256","internalType":"uint256"}],"outputs":[{"name":"id","type":"uint256","internalType":"uint256"},{"name":"creator","type":"address","internalType":"address"},{"name":"githubIssueUrl","type":"string","internalType":"string"},{"name":"description","type":"string","internalType":"string"},{"name":"bounty","type":"uint256","internalType":"uint256"},{"name":"assignedTo","type":"address","internalType":"address"},{"name":"isCompleted","type":"bool","internalType":"bool"},{"name":"percentageCompleted","type":"uint256","internalType":"uint256"},{"name":"claimedPercentage","type":"uint256","internalType":"uint256"},{"name":"isUnderReview","type":"bool","internalType":"bool"},{"name":"createdAt","type":"uint256","internalType":"uint256"},{"name":"difficulty","type":"uint8","internalType":"enum DecentralizedIssueTracker.Difficulty"},{"name":"deadline","type":"uint256","internalType":"uint256"},{"name":"easyDuration","type":"uint256","internalType":"uint256"},{"name":"mediumDuration","type":"uint256","internalType":"uint256"},{"name":"hardDuration","type":"uint256","internalType":"uint256"},{"name":"presentHackerConfidenceScore","type":"uint256","internalType":"uint256"},{"name":"minimumBountyCompletionPercentageForStakeReturn","type":"uint256","internalType":"uint256"}],"stateMutability":"view"},{"type":"function","name":"nextIssueId","inputs":[],"outputs":[{"name":"","type":"uint256","internalType":"uint256"}],"stateMutability":"view"},{"type":"function","name":"nullifierToAddress","inputs":[{"name":"","type":"uint256","internalType":"uint256"}],"outputs":[{"name":"","type":"address","internalType":"address"}],"stateMutability":"view"},{"type":"function","name":"paused","inputs":[],"outputs":[{"name":"","type":"bool","internalType":"bool"}],"stateMutability":"view"},{"type":"function","name":"storeNullifier","inputs":[{"name":"_nullifier","type":"uint256","internalType":"uint256"}],"outputs":[],"stateMutability":"nonpayable"},{"type":"function","name":"submitIssuePercentageClaim","inputs":[{"name":"_issueId","type":"uint256","internalType":"uint256"},{"name":"_claimedPercentage","type":"uint256","internalType":"uint256"}],"outputs":[],"stateMutability":"nonpayable"},{"type":"function","name":"submitIssuePercentageClaimResponse","inputs":[{"name":"_issueId","type":"uint256","internalType":"uint256"},{"name":"_isAccepted","type":"bool","internalType":"bool"}],"outputs":[],"stateMutability":"nonpayable"},{"type":"function","name":"takeIssue","inputs":[{"name":"_issueId","type":"uint256","internalType":"uint256"}],"outputs":[],"stateMutability":"payable"},{"type":"event","name":"AIPaymentSent","inputs":[{"name":"from","type":"address","indexed":true,"internalType":"address"},{"name":"amount","type":"uint256","indexed":false,"internalType":"uint256"}],"anonymous":false},{"type":"event","name":"BountyIncreased","inputs":[{"name":"issueId","type":"uint256","indexed":true,"internalType":"uint256"},{"name":"newBounty","type":"uint256","indexed":false,"internalType":"uint256"}],"anonymous":false},{"type":"event","name":"DeadlineExpired","inputs":[{"name":"issueId","type":"uint256","indexed":true,"internalType":"uint256"},{"name":"contributor","type":"address","indexed":true,"internalType":"address"}],"anonymous":false},{"type":"event","name":"IssueAssigned","inputs":[{"name":"issueId","type":"uint256","indexed":true,"internalType":"uint256"},{"name":"contributor","type":"address","indexed":true,"internalType":"address"},{"name":"deadline","type":"uint256","indexed":false,"internalType":"uint256"}],"anonymous":false},{"type":"event","name":"IssueCompleted","inputs":[{"name":"issueId","type":"uint256","indexed":true,"internalType":"uint256"},{"name":"contributor","type":"address","indexed":true,"internalType":"address"},{"name":"reward","type":"uint256","indexed":false,"internalType":"uint256"}],"anonymous":false},{"type":"event","name":"IssueCreated","inputs":[{"name":"issueId","type":"uint256","indexed":true,"internalType":"uint256"},{"name":"creator","type":"address","indexed":true,"internalType":"address"},{"name":"githubIssueUrl","type":"string","indexed":false,"internalType":"string"},{"name":"bounty","type":"uint256","indexed":false,"internalType":"uint256"},{"name":"difficulty","type":"uint8","indexed":false,"internalType":"enum DecentralizedIssueTracker.Difficulty"}],"anonymous":false},{"type":"event","name":"Paused","inputs":[{"name":"account","type":"address","indexed":false,"internalType":"address"}],"anonymous":false},{"type":"event","name":"StakeForfeited","inputs":[{"name":"issueId","type":"uint256","indexed":true,"internalType":"uint256"},{"name":"contributor","type":"address","indexed":true,"internalType":"address"},{"name":"amount","type":"uint256","indexed":false,"internalType":"uint256"}],"anonymous":false},{"type":"event","name":"Unpaused","inputs":[{"name":"account","type":"address","indexed":false,"internalType":"address"}],"anonymous":false},{"type":"error","name":"EnforcedPause","inputs":[]},{"type":"error","name":"ExpectedPause","inputs":[]},{"type":"error","name":"ReentrancyGuardReentrantCall","inputs":[]}],"bytecode":{"object":"0x60803460c357601f612a5838819003918201601f19168301916001600160401b0383118484101760c75780849260209460405283398101031260c357516001600160a01b0381169081900360c35760015f556001600b558015607e57600c80546001600160a01b03191691909117905560405161297c90816100dc8239f35b60405162461bcd60e51b815260206004820152601860248201527f496e76616c6964204149206167656e74206164647265737300000000000000006044820152606490fd5b5f80fd5b634e487b7160e01b5f52604160045260245ffdfe6101006040526004361015610012575f80fd5b5f3560e01c806304e15de514612388578063095cb0411461233f5780631bdf523f146122fb57806323958fc6146121ec57806325afcbef146121cf5780632f15ecde146121875780632f1a6a7b146121555780633b5a816f14611ff15780633d6780cf14611c585780633ff5767514611c145780634b49f77414611bcb5780634d58324f14611bcb57806356baed7314611a4e5780635c975abb14611a2c5780635d7f3e5c146113805780635e5002d9146112db5780635e5a62b1146112235780635ef21b40146111bb5780636a1821cb146111a05780636a6e3df0146111835780636d74d18b1461114b5780636f9fb98a146111305780637d4f68df14611041578063854287a814610ea8578063879bb33b14610e8d5780638b248cbd14610e355780638f17962b14610aeb578063964859ca14610ace578063a0769ad714610903578063b8a5163d14610662578063d0b03e5c146105f0578063d6565b3c146105d3578063d9e30f7414610434578063da9dd8bf146103fa578063dd71369c146103c2578063de0e0ec81461039a578063eb93299e1461026d578063ec6406751461024d5763faa10cab146101c7575f80fd5b34610249576020366003190112610249576001600160a01b036101e8612650565b165f52600560205260405f206040519081602082549182815201915f5260205f20905f5b8181106102335761022f856102238187038261255d565b604051918291826126fd565b0390f35b825484526020909301926001928301920161020c565b5f80fd5b34610249575f3660031901126102495760206040516509184e72a0008152f35b3461024957604036600319011261024957602435600381101561024957610292612928565b335f5260096020526102a960405f20541515612806565b6004355f526002602052600a60405f206102c581541515612736565b6102dc60018060a01b0360018301541633146128cd565b60058101546103069060ff906102fc6001600160a01b0382161515612779565b60a01c16156127ba565b019060ff82541660038110156103865781111561032c576103269161289d565b60015f55005b60405162461bcd60e51b815260206004820152602c60248201527f4e657720646966666963756c7479206d7573742062652067726561746572207460448201526b68616e2070726576696f757360a01b6064820152608490fd5b634e487b7160e01b5f52602160045260245ffd5b34610249575f36600319011261024957600c546040516001600160a01b039091168152602090f35b34610249576020366003190112610249576001600160a01b036103e3612650565b165f526009602052602060405f2054604051908152f35b34610249576020366003190112610249576001600160a01b0361041b612650565b165f526009602052602060405f20541515604051908152f35b346102495761044236612691565b9061044b612928565b335f52600960205261046260405f20541515612806565b5f52600260205260405f2061047981541515612736565b60058101546001600160a01b0381169061049b9060ff906102fc841515612779565b3303610576578115158061056b575b156105315760068101548211156104d75780600860079201600160ff19825416179055015560015f555f80f35b60405162461bcd60e51b815260206004820152602c60248201527f4e65772070657263656e74616765206d7573742062652067726561746572207460448201526b68616e2070726576696f757360a01b6064820152608490fd5b60405162461bcd60e51b8152602060048201526012602482015271496e76616c69642070657263656e7461676560701b6044820152606490fd5b5060648211156104aa565b60405162461bcd60e51b815260206004820152602f60248201527f4f6e6c792061737369676e656420636f6e7472696275746f722063616e20737560448201526e626d69742070657263656e7461676560881b6064820152608490fd5b34610249575f36600319011261024957602060405162c5c1008152f35b34610249576020366003190112610249576001600160a01b03610611612650565b165f52600460205260405f206040519081602082549182815201915f5260205f20905f5b81811061064c5761022f856102238187038261255d565b8254845260209093019260019283019201610635565b34610249576020366003190112610249575f61022060405161068381612540565b828152826020820152606060408201526060808201528260808201528260a08201528260c08201528260e08201528261010082015282610120820152826101408201528261016082015282610180820152826101a0820152826101c0820152826101e08201528261020082015201526004355f52600260205260405f2060106040519161070f83612540565b8054835260018101546001600160a01b031660208401526107326002820161257f565b60408401526107436003820161257f565b60608401526004810154608084015260ff600582015460018060a01b03811660a086015260a01c16151560c0840152600681015460e0840152600781015461010084015260ff600882015416151561012084015260098101546101408401526107b760ff600a830154166101608501612891565b600b810154610180840152600c8101546101a0840152600d8101546101c0840152600e8101546101e0840152600f81015461020084015201546102208201526040518091602082528051602083015260018060a01b03602082015116604083015261022061084f6108396040840151610240606087015261026086019061261f565b6060840151858203601f1901608087015261261f565b91608081015160a085015260018060a01b0360a08201511660c085015260c0810151151560e085015260e081015161010085015261010081015161012085015261012081015115156101408501526101408101516101608501526108bd610160820151610180860190612643565b6101808101516101a08501526101a08101516101c08501526101c08101516101e08501526101e08101516102008501526102008101518285015201516102408301520390f35b346102495760203660031901126102495760043561091f612928565b335f52600960205261093660405f20541515612806565b805f52600260205260405f209061094f82541515612736565b60018201546001600160a01b03163303610a7b576005820180546001600160a01b038116936004916109d29190610987871515612779565b61099760ff8260a01c16156127ba565b60ff60a01b1916600160a01b1784555f8581526007602090815260408083206001600160a01b038a1684529091529020549201548290612846565b935f5260036020526109e960405f20918254612876565b90555f82815260076020908152604080832084546001600160a01b039081168552925282208290558254829182918291889116828215610a72575bf115610a6757546040519283526001600160a01b0316917f55a178e5f37419daeed81ca0ffdac6b33ccd1523ca2f26c742056c33dbc1960f90602090a360015f55005b6040513d5f823e3d90fd5b506108fc610a24565b60405162461bcd60e51b815260206004820152602560248201527f4f6e6c792069737375652063726561746f722063616e20636f6d706c65746520604482015264697373756560d81b6064820152608490fd5b34610249575f366003190112610249576020600b54604051908152f35b3461024957602036600319011261024957600435610b07612928565b335f526009602052610b1e60405f20541515612806565b805f52600260205260405f20610b3681541515612736565b6005810180546001600160a01b03811690610b599060ff906102fc841515612779565b3303610de457600b82018054421115610d9f5781546001600160a01b0319169091555f90819055600f820181905582815260076020908152604080832033845290915290205460048201805460068401549192828202918190801581850486141715610d3f57610be59460106064610bdd960498015411610d5c575b505084612846565b928254612876565b90555f828152600760209081526040808320338452825280832054600390925290912080549091610c1591612876565b90555f82815260076020908152604080832033845282528083208390556005909152812091905b825480821015610d535784610c51838661267c565b90549060031b1c14610c665750600101610c3c565b9192915f19810191908211610d3f57610c93610c85610cab938561267c565b90549060031b1c918461267c565b90919082549060031b91821b915f19901b1916179055565b80548015610d2b575f190190610cc1828261267c565b8154905f199060031b1b19169055555b80158015610d06575b33837f9d73e3b1fef5bb5bdc9e059052d0a637b76f1b70e58a75e7964f36079812bed35f80a360015f55005b5f80809381938290610d22575b3390f115610a67578180610cda565b506108fc610d13565b634e487b7160e01b5f52603160045260245ffd5b634e487b7160e01b5f52601160045260245ffd5b50509050610cd1565b91610d679192612846565b84555f90604051908152867f3d8f5a59c068c3ac6c20380a090bf8f172ff15e1f256d9915eb4f59c712f9edb60203393a38680610bd5565b60405162461bcd60e51b815260206004820152601760248201527f446561646c696e6520686173206e6f74207061737365640000000000000000006044820152606490fd5b60405162461bcd60e51b815260206004820152602360248201527f4f6e6c792061737369676e656420636f6e7472696275746f722063616e20636c60448201526261696d60e81b6064820152608490fd5b3461024957604036600319011261024957610e4e612650565b6001600160a01b03165f9081526005602052604090208054602435919082101561024957602091610e7e9161267c565b90549060031b1c604051908152f35b34610249575f36600319011261024957602060405160148152f35b602036600319011261024957600435335f526009602052610ece60405f20541515612806565b610ed6612928565b805f52600260205260405f20610eee81541515612736565b6001810154336001600160a01b0390911603610fed5760ff600582015460a01c16610f95573415610f5b57602060047fe292d9413bbf8109ebc64ca5578582baebe6ab565efae2f604cf9bbd2638ecdf9201610f4b348254612846565b809155604051908152a260015f55005b60405162461bcd60e51b815260206004820152601260248201527109aeae6e840e6cadcc840e6dedaca408aa8960731b6044820152606490fd5b60405162461bcd60e51b815260206004820152602a60248201527f43616e6e6f7420696e63726561736520626f756e747920666f7220636f6d706c6044820152696574656420697373756560b01b6064820152608490fd5b60405162461bcd60e51b815260206004820152602660248201527f4f6e6c792069737375652063726561746f722063616e20696e63726561736520604482015265626f756e747960d01b6064820152608490fd5b346102495761104f36612691565b90611058612928565b335f52600960205261106f60405f20541515612806565b5f52600260205260405f2061108681541515612736565b61109d60018060a01b0360018301541633146128cd565b60058101546110bd9060ff906102fc6001600160a01b0382161515612779565b81156110da57600b6110d29101918254612846565b905560015f55005b60405162461bcd60e51b815260206004820152602860248201527f54696d6520657874656e73696f6e206d7573742062652067726561746572207460448201526768616e207a65726f60c01b6064820152608490fd5b34610249575f36600319011261024957602047604051908152f35b34610249576020366003190112610249576001600160a01b0361116c612650565b165f526003602052602060405f2054604051908152f35b34610249575f36600319011261024957602060405162278d008152f35b34610249575f36600319011261024957602060405160058152f35b34610249576020366003190112610249576004355f526002602052602060405f2060058101549060018060a01b03821615159182611214575b5081611206575b506040519015158152f35b600b915001544211826111fb565b60a01c60ff16159150836111f4565b34610249576020366003190112610249576004355f52600660205260405f20604051806020835491828152019081935f5260205f20905f5b8181106112bc575050508161127191038261255d565b604051918291602083019060208452518091526040830191905f5b81811061129a575050500390f35b82516001600160a01b031684528594506020938401939092019160010161128c565b82546001600160a01b031684526020909301926001928301920161125b565b34610249575f36600319011261024957600b545f198101908111610d3f57611302816128b5565b90611310604051928361255d565b808252601f1961131f826128b5565b0136602084013760015b8181111561133f576040518061022f85826126fd565b5f19810190808211610d3f57835182101561136c578060206113679360051b86010152612883565b611329565b634e487b7160e01b5f52603260045260245ffd5b60e03660031901126102495760043567ffffffffffffffff8111610249576113ac9036906004016126a7565b60243567ffffffffffffffff8111610249576113cc9036906004016126a7565b9060036044351015610249576084359060a4356064356113ea612928565b335f52600960205261140160405f20541515612806565b6509184e72a0003411156119cd5782511561198957606460c43511611938575f8080806509184e72a00060018060a01b03600c541682f115610a67576040516509184e72a00081527fb2ec13d503adcd478ef0aff8c6c505bf069b31bf44febf8c0dbb1b469cbc80c260203392a2346509184e729fff19810111610d3f57801561192d57925b801561192257905b801561191757905b600b54936114a485612883565b600b55604051956114b487612540565b85875233602088015284604088015260608701526509184e729fff19340160808701525f60a08701525f60c08701525f60e08701525f6101008701525f6101208701524261014087015261150e6044356101608801612891565b5f6101808701526101a08601526101c08501526101e08401526102008301925f845261022081019060c4358252835f52600260205260405f20918151835560018060a01b03602083015116600184019060018060a01b03166bffffffffffffffffffffffff60a01b82541617905560028301604083015180519067ffffffffffffffff82116118455781906115a38454612508565b601f81116118c7575b50602090601f8311600114611864575f92611859575b50508160011b915f199060031b1c19161790555b60038301606083015180519067ffffffffffffffff82116118455781906115fd8454612508565b601f81116117f5575b50602090601f8311600114611792575f92611787575b50508160011b915f199060031b1c19161790555b6080820151600484015560a08083015160058501805460c08601516001600160a81b03199091166001600160a01b03939093169290921791151590921b60ff60a01b1617905560e08201516006840155610100820151600784015561012082015160088401805491151560ff1660ff19929092169190911790556101408201516009840155610160820151956003871015610386576101e06010936116da602099600a880161289d565b610180810151600b8701556101a0810151600c8701556101c0810151600d8701550151600e85015551600f84015551910155335f52600483526117208260405f20612853565b817f4a789118e7e41d9c2360426e6c99562160e585c71e597fb4f7db59c54579f8c16117576040519360608552606085019061261f565b346509184e729fff1901868501529261177560408201604435612643565b8033940390a360015f55604051908152f35b01519050898061161c565b5f8581528281209350601f198516905b8181106117dd57509084600195949392106117c5575b505050811b019055611630565b01515f1960f88460031b161c191690558980806117b8565b929360206001819287860151815501950193016117a2565b909150835f5260205f20601f840160051c8101916020851061183b575b90601f859493920160051c01905b81811061182d5750611606565b5f8155849350600101611820565b9091508190611812565b634e487b7160e01b5f52604160045260245ffd5b0151905089806115c2565b5f8581528281209350601f198516905b8181106118af5750908460019594939210611897575b505050811b0190556115d6565b01515f1960f88460031b161c1916905589808061188a565b92936020600181928786015181550195019301611874565b909150835f5260205f20601f840160051c8101916020851061190d575b90601f859493920160051c01905b8181106118ff57506115ac565b5f81558493506001016118f2565b90915081906118e4565b5062c5c10090611497565b5062278d009061148f565b5062093a8092611487565b60405162461bcd60e51b8152602060048201526024808201527f4d696e696d756d2070657263656e746167652063616e6e6f74206578636565646044820152630203130360e41b6064820152608490fd5b606460405162461bcd60e51b815260206004820152602060248201527f4769744875622069737375652055524c2063616e6e6f7420626520656d7074796044820152fd5b60405162461bcd60e51b815260206004820152603160248201527f496e73756666696369656e74207061796d656e7420286d757374206578636565604482015270642041492073657276696365206665652960781b6064820152608490fd5b34610249575f36600319011261024957602060ff600154166040519015158152f35b34610249576020366003190112610249576004353315611b8f578015611b5657335f52600960205260405f2054611b11575f818152600a60205260409020546001600160a01b0316611acc57335f818152600960209081526040808320859055938252600a90529190912080546001600160a01b0319169091179055005b60405162461bcd60e51b815260206004820152601860248201527f4e756c6c696669657220616c7265616479206d617070656400000000000000006044820152606490fd5b60405162461bcd60e51b815260206004820152601860248201527f4e756c6c696669657220616c72656164792065786973747300000000000000006044820152606490fd5b60405162461bcd60e51b815260206004820152601160248201527024b73b30b634b210373ab63634b334b2b960791b6044820152606490fd5b60405162461bcd60e51b8152602060048201526014602482015273496e76616c69642075736572206164647265737360601b6044820152606490fd5b3461024957604036600319011261024957611be4612666565b6004355f52600860205260405f209060018060a01b03165f52602052602060ff60405f2054166040519015158152f35b3461024957604036600319011261024957611c2d612666565b6004355f52600760205260405f209060018060a01b03165f52602052602060405f2054604051908152f35b602036600319011261024957600435611c6f612928565b335f526009602052611c8660405f20541515612806565b805f52600260205260405f209060048201548015611fac57611caa83541515612736565b6005830180549091906001600160a01b0316611f6e5760018401546001600160a01b03163314611f17575f83815260086020908152604080832033845290915290205460ff16611ec45760058102818104600503610d3f5760148202918204601403610d3f57606490043410159081611eb6575b5015611e7a5760ff600a8401541660038110156103865780611e4b5750600b611d4b600c85015442612846565b9384925b80546001600160a01b031916339081179091559101919091555f828152600860209081526040808320938352928152828220805460ff1916600117905583825260069052208054600160401b81101561184557611db19160018201815561267c565b81549060031b9033821b9160018060a01b03901b1916179055335f52600360205260405f20611de1348254612846565b9055335f526005602052611df88160405f20612853565b805f52600760205260405f2060018060a01b0333165f5260205260405f203490556040519182527f4379a47cc4244fc90b7829ce742179a7bd34e7131b2865ae1afc8a978c9c904260203393a360015f55005b600103611e6a57600b611e62600d85015442612846565b938492611d4f565b600b611e62600e85015442612846565b60405162461bcd60e51b8152602060048201526014602482015273125b9d985b1a59081cdd185ad948185b5bdd5b9d60621b6044820152606490fd5b606491500434111584611d1e565b60405162461bcd60e51b815260206004820152602560248201527f596f75206861766520616c726561647920617474656d70746564207468697320604482015264697373756560d81b6064820152608490fd5b60405162461bcd60e51b815260206004820152602960248201527f43726561746f722063616e6e6f742061737369676e20697373756520746f207460448201526868656d73656c76657360b81b6064820152608490fd5b60405162461bcd60e51b8152602060048201526016602482015275125cdcdd5948185b1c9958591e48185cdcda59db995960521b6044820152606490fd5b60405162461bcd60e51b815260206004820152601e60248201527f497373756520626f756e747920686173206265656e206465706c6574656400006044820152606490fd5b3461024957604036600319011261024957602435801515810361024957612016612928565b335f52600960205261202d60405f20541515612806565b6004355f52600260205260405f2061204781541515612736565b60058101546120679060ff906102fc6001600160a01b0382161515612779565b60018101546001600160a01b0316330361210057600781019182549283156120af576008935f926120a4575b505501805460ff1916905560015f55005b600684015584612093565b60405162461bcd60e51b815260206004820152602360248201527f4e6f20636c61696d65642070657263656e7461676520746f20726573706f6e6460448201526220746f60e81b6064820152608490fd5b60405162461bcd60e51b815260206004820152602760248201527f4f6e6c792069737375652063726561746f722063616e20726573706f6e6420746044820152666f20636c61696d60c81b6064820152608490fd5b34610249576020366003190112610249576004355f52600a602052602060018060a01b0360405f205416604051908152f35b346102495761219536612691565b905f52600660205260405f208054821015610249576020916121b69161267c565b905460405160039290921b1c6001600160a01b03168152f35b34610249575f36600319011261024957602060405162093a808152f35b34610249576121fa36612691565b90612203612928565b600c546001600160a01b031633036122b6575f52600260205260405f2061222c81541515612736565b600581015461224c9060ff906102fc6001600160a01b0382161515612779565b6064821161225e57600f015560015f55005b60405162461bcd60e51b815260206004820152602a60248201527f436f6e666964656e63652073636f7265206d757374206265206265747765656e6044820152690203020616e64203130360b41b6064820152608490fd5b60405162461bcd60e51b815260206004820152601b60248201527f4f6e6c79204149204167656e742063616e2063616c6c207468697300000000006044820152606490fd5b34610249576020366003190112610249576004355f526002602052606060405f20600c81015490600e600d8201549101549060405192835260208301526040820152f35b3461024957604036600319011261024957612358612650565b6001600160a01b03165f9081526004602052604090208054602435919082101561024957602091610e7e9161267c565b34610249576020366003190112610249576004355f52600260205260405f208054600160a01b6001900360018301541660a052600282016123c89061257f565b60e0526123d76003830161257f565b91600481015460805260058101549260068201546007830154600884015460ff166009850154600a86015460ff1690600b87015492600c88015494600d89015496600e8a015498600f8b01549a601001549b60405160c05260c0515260a05160c0516020015260c051604001610240905260c0516102400160e0519061245c9161261f565b60c051810360c051606001526124719161261f565b9b60805160c05160800152600160a01b60019003811660c05160a0015260a01c60ff16151560c05160c0015260c05160e0015260c0516101000152151560c051610120015260c051610140015260c051610160016124ce91612643565b60c051610180015260c0516101a0015260c0516101c0015260c0516101e0015260c051610200015260c051610220015260c051900360c051f35b90600182811c92168015612536575b602083101461252257565b634e487b7160e01b5f52602260045260245ffd5b91607f1691612517565b610240810190811067ffffffffffffffff82111761184557604052565b90601f8019910116810190811067ffffffffffffffff82111761184557604052565b9060405191825f82549261259284612508565b80845293600181169081156125fd57506001146125b9575b506125b79250038361255d565b565b90505f9291925260205f20905f915b8183106125e15750509060206125b7928201015f6125aa565b60209193508060019154838589010152019101909184926125c8565b9050602092506125b794915060ff191682840152151560051b8201015f6125aa565b805180835260209291819084018484015e5f828201840152601f01601f1916010190565b9060038210156103865752565b600435906001600160a01b038216820361024957565b602435906001600160a01b038216820361024957565b805482101561136c575f5260205f2001905f90565b6040906003190112610249576004359060243590565b81601f820112156102495780359067ffffffffffffffff821161184557604051926126dc601f8401601f19166020018561255d565b8284526020838301011161024957815f926020809301838601378301015290565b60206040818301928281528451809452019201905f5b8181106127205750505090565b8251845260209384019390920191600101612713565b1561273d57565b60405162461bcd60e51b8152602060048201526014602482015273125cdcdd5948191bd95cc81b9bdd08195e1a5cdd60621b6044820152606490fd5b1561278057565b60405162461bcd60e51b8152602060048201526012602482015271125cdcdd59481b9bdd08185cdcda59db995960721b6044820152606490fd5b156127c157565b60405162461bcd60e51b815260206004820152601760248201527f497373756520616c726561647920636f6d706c657465640000000000000000006044820152606490fd5b1561280d57565b60405162461bcd60e51b8152602060048201526011602482015270155cd95c881b9bdd081d995c9a599a5959607a1b6044820152606490fd5b91908201809211610d3f57565b90815491600160401b8310156118455782610c939160016125b79501815561267c565b91908203918211610d3f57565b5f198114610d3f5760010190565b60038210156103865752565b9060038110156103865760ff80198354169116179055565b67ffffffffffffffff81116118455760051b60200190565b156128d457565b60405162461bcd60e51b815260206004820152602660248201527f4f6e6c792069737375652063726561746f722063616e20657874656e6420646560448201526561646c696e6560d01b6064820152608490fd5b60025f54146129375760025f55565b633ee5aeb560e01b5f5260045ffdfea2646970667358221220c975d803548ee8f54af7ed5db2ecff4bd0a8c0fd922e487ac685d0a3b3b654c264736f6c634300081e0033","linkReferences":{}},"methodIdentifiers":{"AI_AGENT_ADDRESS()":"de0e0ec8","AI_SERVICE_FEE()":"ec640675","DEFAULT_EASY_DURATION()":"25afcbef","DEFAULT_HARD_DURATION()":"d6565b3c","DEFAULT_MEDIUM_DURATION()":"6a6e3df0","MAX_CONTRIBUTOR_STAKE_PERCENTAGE()":"879bb33b","MIN_CONTRIBUTOR_STAKE_PERCENTAGE()":"6a1821cb","addressToNullifier(address)":"dd71369c","claimExpiredIssue(uint256)":"8f17962b","completeIssue(uint256)":"a0769ad7","contributorAssignedIssues(address,uint256)":"8b248cbd","contributorStakes(address)":"6d74d18b","createIssue(string,string,uint8,uint256,uint256,uint256,uint256)":"5d7f3e5c","creatorIssues(address,uint256)":"095cb041","getContractBalance()":"6f9fb98a","getContributorAssignedIssues(address)":"faa10cab","getCreatorIssues(address)":"d0b03e5c","getIssueDurations(uint256)":"1bdf523f","getIssueInfo(uint256)":"b8a5163d","getIssuePreviousContributors(uint256)":"5e5a62b1","getOrganisationIssues()":"5e5002d9","gradeIssueByAI(uint256,uint256)":"23958fc6","hasAttemptedIssue(uint256,address)":"4b49f774","hasContributorAttemptedIssue(uint256,address)":"4d58324f","increaseBounty(uint256)":"854287a8","increaseIssueDeadline(uint256,uint256)":"7d4f68df","increaseIssueDifficulty(uint256,uint8)":"eb93299e","isAddressVerified(address)":"da9dd8bf","isIssueExpired(uint256)":"5ef21b40","issuePreviousContributors(uint256,uint256)":"2f15ecde","issueToUserWithdrawAmountLeft(uint256,address)":"3ff57675","issues(uint256)":"04e15de5","nextIssueId()":"964859ca","nullifierToAddress(uint256)":"2f1a6a7b","paused()":"5c975abb","storeNullifier(uint256)":"56baed73","submitIssuePercentageClaim(uint256,uint256)":"d9e30f74","submitIssuePercentageClaimResponse(uint256,bool)":"3b5a816f","takeIssue(uint256)":"3d6780cf"},"id":25}